:020000040800F2
:100000000080012081430008F1420008F34200080B
:10001000F5420008F7420008F9420008000000001D
:10002000000000000000000000000000FB4200088B
:10003000FD42000800000000FF42000801430008E4
:10004000D1430008D1430008D1430008D143000840
:10005000D1430008D1430008D1430008D143000830
:10006000D1430008D1430008D1430008D143000820
:10007000D1430008D1430008D1430008D143000810
:10008000D1430008D14300080543000800000000E8
:10009000000000000000000000000000D143000844
:1000A000D1430008D1430008D1430008D1430008E0
:1000B000D1430008D1430008D1430008D1430008D0
:1000C000D1430008D1430008D1430008D1430008C0
:1000D000D1430008D1430008D143000800000000CC
:1000E000D1430008D1430008D143000800000000BC
:1000F000000000000000000000000000D1430008E4
:1001000000000000D1430008D1430008D14300089B
:1001100000000000000000000000000000000000DF
:1001200011430008D1430008D1430008D14300081F
:10013000D1430008000000000000000000000000A3
:10014000000000000000000000000000D143000893
:10015000D1430008D1430008D1430008D14300082F
:100160001D430008294300080000000000000000B3
:10017000000000000000000000000000000000007F
:1001800000000000D1430008000000000000000053
:04019000D14300084F
:1001980010B5054C237833B9044B13B10448AFF3B9
:1001A80000800123237010BD0C0000200000000017
:1001B8002C44000808B5034B1BB103490348AFF3AF
:1001C800008008BD00000000100000202C4400083A
:1001D80081F0004102E000BF83F0004330B54FEAF0
:1001E80041044FEA430594EA050F08BF90EA020F5D
:1001F8001FBF54EA000C55EA020C7FEA645C7FEAF0
:10020800655C00F0E2804FEA5454D4EB5555B8BF12
:100218006D420CDD2C4480EA020281EA030382EA83
:10022800000083EA010180EA020281EA0303362D15
:1002380088BF30BD11F0004F4FEA01314FF4801CE8
:100248004CEA113102D0404261EB410113F0004FFA
:100258004FEA03334CEA133302D0524263EB4303B1
:1002680094EA050F00F0A780A4F10104D5F1200E4F
:100278000DDB02FA0EFC22FA05F2801841F10001AA
:1002880003FA0EF2801843FA05F359410EE0A5F17E
:1002980020050EF1200E012A03FA0EFC28BF4CF0AF
:1002A800020C43FA05F3C01851EBE37101F0004565
:1002B80007D54FF0000EDCF1000C7EEB00006EEB72
:1002C8000101B1F5801F1BD3B1F5001F0CD34908FC
:1002D8005FEA30004FEA3C0C04F101044FEA445253
:1002E80012F5800F80F09A80BCF1004F08BF5FEADA
:1002F800500C50F1000041EB045141EA050130BDBA
:100308005FEA4C0C404141EB010111F4801FA4F15C
:100318000104E9D191F0000F04BF01460020B1FAB1
:1003280081F308BF2033A3F10B03B3F120020CDAE9
:100338000C3208DD02F1140CC2F10C0201FA0CF0C7
:1003480021FA02F10CE002F11402D8BFC2F1200C2C
:1003580001FA02F120FA0CFCDCBF41EA0C019040E2
:10036800E41AA2BF01EB0451294330BD6FEA04042B
:100378001F3C1CDA0C340EDC04F11404C4F1200216
:1003880020FA04F001FA02F340EA030021FA04F328
:1003980045EA030130BDC4F10C04C4F1200220FA7F
:1003A80002F001FA04F340EA0300294630BD21FABD
:1003B80004F0294630BD94F0000F83F4801306BF83
:1003C80081F480110134013D4EE77FEA645C18BF77
:1003D8007FEA655C29D094EA050F08BF90EA020F0E
:1003E80005D054EA000C04BF1946104630BD91EA06
:1003F800030F1EBF0021002030BD5FEA545C05D109
:100408004000494128BF41F0004130BD14F5800447
:100418003CBF01F5801130BD01F0004545F0FE41BB
:1004280041F470014FF0000030BD7FEA645C1ABFF0
:10043800194610467FEA655C1CBF0B46024650EA27
:10044800013406BF52EA033591EA030F41F4002153
:1004580030BD00BF90F0000F04BF0021704730B5D9
:100468004FF4806404F132044FF000054FF00001AE
:1004780050E700BF90F0000F04BF0021704730B56F
:100488004FF4806404F1320410F0004548BF404244
:100498004FF000013EE700BF42004FEAE2014FEA99
:1004A80031014FEA02701FBF12F07F4393F07F4F74
:1004B80081F06051704792F0000F14BF93F07F4FA6
:1004C800704730B54FF4607401F0004521F00041E9
:1004D80020E700BF50EA010208BF704730B54FF06F
:1004E80000050AE050EA010208BF704730B511F074
:1004F800004502D5404261EB41014FF4806404F1AC
:1005080032045FEA915C3FF4DCAE4FF003025FEA2D
:10051800DC0C18BF03325FEADC0C18BF033202EBB5
:10052800DC02C2F1200300FA03FC20FA02F001FA0F
:1005380003FE40EA0E0021FA02F11444C1E600BFAE
:1005480070B54FF0FF0C4CF4E06C1CEA11541DBF61
:100558001CEA135594EA0C0F95EA0C0F00F0DEF82C
:100568002C4481EA030621EA4C5123EA4C5350EA11
:10057800013518BF52EA033541F4801143F4801362
:1005880038D0A0FB02CE4FF00005E1FB02E506F0F3
:100598000042E0FB03E54FF00006E1FB03569CF048
:1005A800000F18BF4EF0010EA4F1FF04B6F5007F4E
:1005B80064F5407404D25FEA4E0E6D4146EB0606C0
:1005C80042EAC62141EA55514FEAC52040EA5E5049
:1005D8004FEACE2EB4F1FD0C88BFBCF5E06F1ED8F3
:1005E800BEF1004F08BF5FEA500E50F1000041EB2A
:1005F800045170BD06F0004646EA010140EA0200D7
:1006080081EA0301B4EB5C04C2BFD4EB0C0541EAF8
:10061800045170BD41F480114FF0000E013C00F30D
:10062800AB8014F1360FDEBF002001F0004170BD31
:10063800C4F10004203C35DA0C341BDC04F114044A
:10064800C4F1200500FA05F320FA04F001FA05F2D6
:1006580040EA020001F0004221F0004110EBD370A3
:1006680021FA04F642EB06015EEA430E08BF20EACF
:10067800D37070BDC4F10C04C4F1200500FA04F372
:1006880020FA05F001FA04F240EA020001F0004104
:1006980010EBD37041F100015EEA430E08BF20EA77
:1006A800D37070BDC4F1200500FA05F24EEA020EBF
:1006B80020FA04F301FA05F243EA020321FA04F0EE
:1006C80001F0004121FA04F220EA020000EBD370A5
:1006D8005EEA430E08BF20EAD37070BD94F0000FA5
:1006E8000FD101F00046400041EB010111F4801FD9
:1006F80008BF013CF7D041EA060195F0000F18BF8A
:10070800704703F00046520043EB030313F4801FC5
:1007180008BF013DF7D043EA0603704794EA0C0F7F
:100728000CEA135518BF95EA0C0F0CD050EA410695
:1007380018BF52EA4306D1D181EA030101F0004112
:100748004FF0000070BD50EA410606BF104619463A
:1007580052EA430619D094EA0C0F02D150EA013646
:1007680013D195EA0C0F05D152EA03361CBF104687
:1007780019460AD181EA030101F0004141F0FE4126
:1007880041F470014FF0000070BD41F0FE4141F4AA
:10079800780170BD70B54FF0FF0C4CF4E06C1CEAAA
:1007A80011541DBF1CEA135594EA0C0F95EA0C0F5F
:1007B80000F0A7F8A4EB050481EA030E52EA03351A
:1007C8004FEA013100F088804FEA03334FF080553B
:1007D80045EA131343EA12634FEA022245EA111568
:1007E80045EA10654FEA00260EF000419D4208BF19
:1007F800964244F1FD0404F5407402D25B084FEAC6
:100808003202B61A65EB03055B084FEA32024FF471
:1008180080104FF4002CB6EB020E75EB030E22BFCE
:10082800B61A754640EA0C005B084FEA3202B6EB8E
:10083800020E75EB030E22BFB61A754640EA5C003D
:100848005B084FEA3202B6EB020E75EB030E22BFCD
:10085800B61A754640EA9C005B084FEA3202B6EBCE
:10086800020E75EB030E22BFB61A754640EADC008D
:1008780055EA060E18D04FEA051545EA16754FEAEF
:1008880006164FEAC30343EA52734FEAC2025FEA0D
:100898001C1CC0D111F4801F0BD141EA00014FF09C
:1008A80000004FF0004CB6E711F4801F04BF01436D
:1008B8000020B4F1FD0C88BFBCF5E06F3FF6AFAE89
:1008C800B5EB030C04BFB6EB020C5FEA500C50F119
:1008D800000041EB045170BD0EF0004E4EEA11319C
:1008E80014EB5C04C2BFD4EB0C0541EA045170BDA3
:1008F80041F480114FF0000E013C90E645EA060EE7
:100908008DE60CEA135594EA0C0F08BF95EA0C0F14
:100918003FF43BAF94EA0C0F0AD150EA01347FF45C
:1009280034AF95EA0C0F7FF425AF104619462CE733
:1009380095EA0C0F06D152EA03353FF4FDAE104696
:10094800194622E750EA410618BF52EA43067FF4E7
:10095800C5AE50EA41047FF40DAF52EA43057FF477
:10096800EBAE12E74A0011D212F5001211D20DD5E2
:100978006FF47873B3EB62520ED44FEAC12343F09D
:10098800004343EA505323FA02F070474FF0000047
:10099800704750EA013002D14FF0FF3070474FF0F6
:1009A8000000704753B94AB9002908BF00281CBF86
:1009B8004FF0FF314FF0FF3000F07AB9ADF1080C7D
:1009C8006DE904CE00F006F8DDF804E0DDE9022365
:1009D80004B070472DE9F0478C460D460446089E42
:1009E800002B51D18A4217466DD9B2FA82FEBEF168
:1009F800000F0BD0CEF1200C01FA0EF520FA0CFCFA
:100A080002FA0EF74CEA050C00FA0EF44FEA174A00
:100A1800250CBCFBFAF81FFA87F90AFB18CC45EA43
:100A28000C4508FB09F3AB420AD9ED1908F1FF326E
:100A380080F02381AB4240F22081A8F102083D44B6
:100A4800ED1AA4B2B5FBFAF00AFB105544EA0544C6
:100A580000FB09F9A14509D9E41900F1FF3380F039
:100A68000A81A14540F2078102383C44A4EB0904FD
:100A780040EA08400021002E61D024FA0EF4002339
:100A880034607360BDE8F0878B4207D9002E54D0DC
:100A9800002186E821000846BDE8F087B3FA83F113
:100AA800002940F08E80AB4202D3824200F2FA80E5
:100AB800841A65EB03050120AC46002E3FD086E87A
:100AC8001010BDE8F08712B90127B7FBF2F7B7FAA3
:100AD80087FEBEF1000F34D1EB1B3A0C1FFA87FCDE
:100AE8000121B3FBF2F8250C02FB183345EA034554
:100AF8000CFB08F3AB4207D9ED1908F1FF3002D21D
:100B0800AB4200F2D1808046ED1AA3B2B5FBF2F0F9
:100B180002FB105543EA05440CFB00FCA44507D929
:100B2800E41900F1FF3302D2A44500F2B880184658
:100B3800A4EB0C0440EA08409DE731463046BDE886
:100B4800F087CEF1200405FA0EF307FA0EF720FA23
:100B580004F83A0C25FA04F448EA0308B4FBF2F165
:100B68004FEA184502FB11441FFA87FC45EA044581
:100B780001FB0CF3AB4200FA0EF409D9ED1901F1AF
:100B8800FF3080F08A80AB4240F2878002393D44D2
:100B9800EB1A1FFA88F5B3FBF2F002FB103345EAB3
:100BA800034500FB0CF3AB4207D9ED1900F1FF3800
:100BB8006FD2AB426DD902383D44EB1A40EA01418D
:100BC8008FE7C1F1200722FA07F88B4005FA01F4F4
:100BD80048EA030320FA07FE4FEA134CFD404EEAA9
:100BE800040EB5FBFCF94FEA1E440CFB19551FFA1D
:100BF80083F844EA054509FB08F4AC4202FA01F21D
:100C080000FA01FA08D9ED1809F1FF3043D2AC42D5
:100C180041D9A9F102091D442D1B1FFA8EFEB5FB0F
:100C2800FCF00CFB10554EEA054400FB08F8A04503
:100C380007D9E41800F1FF3529D2A04527D9023891
:100C48001C4440EA0940A4EB0804A0FB02894C4577
:100C5800C6464D4615D312D056B1BAEB0E0364EB17
:100C6800050404FA07F7CB401F43CC403760746093
:100C78000021BDE8F0871846F8E69046E0E6C24550
:100C8800EAD2B8EB020E69EB03050138E4E728461F
:100C9800D7E7404691E78146BEE7014678E7023844
:100CA8003C4445E7084608E7A8F102083D442BE71D
:100CB800704700BF38B50E4A0E4B054618784FF4FA
:100CC8007A73B3FBF0F31068B0FBF3F000F046FB67
:100CD800044658B90F2D09D8024629464FF0FF306F
:100CE80000F0FAFA044B20461D6038BD012038BDDB
:100CF80008000020000000200400002008B50B4B6D
:100D08001A6842F400721A601A6842F480621A6023
:100D18001A6842F480721A60032000F0CBFA0020AF
:100D2800FFF7C8FF03F00CF9002008BD003C0240A3
:100D3800034A044B11681B780B441360704700BFCB
:100D48002800002000000020014B1868704700BFF1
:100D58002800002038B50446FFF7F6FF631C1CBFC7
:100D6800054B1B78054618BFE418FFF7EDFF401B3D
:100D78008442FAD838BD00BF0000002038B50446C8
:100D8800002800F09B80056C25B903F0F5F8656430
:100D980084F83C50236CDB0600F18E80236C23F42E
:100DA800885323F0020343F002032364444B5A6838
:100DB80022F440325A605A6861680A435A602368CC
:100DC80021695A6822F480725A605A6842EA0122FC
:100DD8005A605A68A16822F040725A605A680A43F9
:100DE8005A609A68E16822F400629A609A680A4335
:100DF8009A603449A26A8A4252D0996821F0706197
:100E0800996099680A439A609A68E16A22F04052A8
:100E18009A609A680A439A609A68217E22F00202D0
:100E28009A609A6842EA41029A6094F82020002A5F
:100E38003ED05A68616A42F400625A605A6822F4E5
:100E480060425A605A68013942EA41325A60DA6AA5
:100E5800E16922F47002DA62DA6A013942EA01527F
:100E6800DA629A6894F8301022F400729A609A68EC
:100E780042EA41229A609A68616922F480629A6023
:100E88009A68002042EA81229A606064236C23F009
:100E9800030343F001032364002384F83C3038BD86
:100EA8009A6822F070629A609A6822F04052B2E71B
:100EB8005A6822F40062C9E70120EDE7012038BD35
:100EC800002301400100000F37B5134600220192AC
:100ED80090F83C20012A044665D00568012280F874
:100EE8003C20AA68D20705D5AA68D00715D40020E7
:100EF80003B030BDAA6842F00102AA602B4A10680C
:100F08002B4AB0FBF2F000EB40000190019A002A56
:100F1800EAD0019A013A0192F8E7206C20F4E060E7
:100F280020F0010040F4807020646A68520541BFD7
:100F3800206C20F4405040F480502064226CA06B58
:100F480012F480521CBF626C22F006026264002216
:100F580084F83C20174AC263174A0264174AC264DD
:100F68006FF022022A606A6842F080626A60AA68AA
:100F780042F48072AA600A4605F14C0100F098FA22
:100F88000F4B5B6813F01F0F236808D1986810F0A7
:100F98004050ACD19A6842F080429A60A8E7094A6A
:100FA8009342A4D1F2E70220A2E700BF0800002084
:100FB80040420F0021110008D50F00080B1100084E
:100FC80000230140002001407047704708B5806B3E
:100FD800FFF7FBFF08BD7047704738B5036819680D
:100FE8005A688D0704462BD5900629D5226CD10660
:100FF8005EBF226C42F4007222649A6812F0405F6D
:1010080017D1227EAAB9DA6A12F4700F02D09A6850
:1010180052050ED45A6822F020025A60236C23F439
:1010280080732364236CDB045EBF236C43F00103ED
:1010380023642046FFF7C8FF23686FF012021A6086
:10104800236819685A684D0732D5100630D5226CC6
:10105800D1065EBF226C42F4005222649A6812F4F0
:10106800401F1ED19A6B12F4401F02D09A68520595
:1010780017D45A68550514D49A6812F0405F10D1F5
:10108800227E72B95A6822F080025A60236C23F4D7
:1010980080532364236CD8055EBF236C43F001039F
:1010A8002364204600F004F923686FF00C021A60EC
:1010B800236819685A68C9070FD555060DD51B68E6
:1010C800D8070AD5236C43F4803323642046FFF7FE
:1010D80082FF23686FF001021A60236819685A6852
:1010E80089060DD552010BD5626C6FF0200542F0D0
:1010F8000202626420461D60FFF76EFF23681D60D0
:1011080038BD806B08B540230364436C43F0040387
:101118004364FFF761FF08BD836B1A6C12F0500F30
:1011280010B51A6C23D142F400721A641A689168D7
:1011380011F0405F17D1197EA9B9D16A11F4700F67
:1011480002D0916848050ED4516821F02001516001
:101158001A6C22F480721A641A6CD1045EBF1A6C7D
:1011680042F001021A641846FFF72EFF10BDD2069E
:1011780003D51846FFF730FF10BD9B6BBDE8104044
:10118800DB6C1847F7B50023019390F83C30012B2E
:1011980000F083800D6804688A680123092D80F8AF
:1011A8003C30AEB22AD906EB4603E7681E3B4FF047
:1011B800070E0EFA03FE27EA0E07E760E76802FA51
:1011C80003F33B43E3604A68062A4FEA820325D8C3
:1011D8001344676B591F1F238B4027EA030363637C
:1011E800626B06FA01F1114361632D4B9C4234D0C6
:1011F800002380F83C30184603B0F0BD276905EBA2
:1012080045034FF0070E0EFA03FE27EA0E07276183
:10121800276902FA03F33B432361D4E70C2A0ED86B
:101228001344216BA3F123021F23934021EA0303F4
:101238002363236B06FA02F21A432263D5E71344A9
:10124800E16A413B1F229A4021EA0202E262E26A15
:1012580006FA03F11143E162C7E7122D04D1114ADE
:10126800536843F480035360A5F11003012BBFD8E2
:101278000C4A5368102D43F400035360B8D10A4B4D
:101288000A4A1B68B3FBF2F20A2353430193019BFA
:10129800002BADD0019B013BF8E70220ACE700BF73
:1012A80000200140002301400800002040420F00B8
:1012B80070470000074AD36823F4E0631B041B0C43
:1012C80043F0BF63000243F4003300F4E0600343DB
:1012D800D360704700ED00E0174B30B5DC68C4F30D
:1012E8000224C4F10703251D042B28BF0423062D5F
:1012F8004FF0010505FA03F303F1FF338CBF033CFC
:1013080000241940A14005FA04F4013C22400028B9
:1013180042EA01024FEA0212ADBF00F1604000F05C
:101328000F00064B00F56140B5BFD2B2D2B21A54D5
:1013380080F8002330BD00BF00ED00E014ED00E0B0
:10134800002808DB4209012300F01F0003FA00F01F
:10135800014B43F82200704700E100E00138B0F18A
:10136800807F0AD2064B074A5860F02182F8231082
:101378000020072298601A6070470120704700BF5C
:1013880010E000E000ED00E00368DAB223F47F73B8
:1013980023F003031821103AB2FBF1F20449032A9F
:1013A80088BF0433895C8365C165806D704700BF61
:1013B8004444000870B50446FFF7C6FC0546002CF7
:1013C80071D0002384F834302268022384F8353041
:1013D800136823F00103136021680B68D8073CD415
:1013E8000B68324D6268A0691D40A3681343E26828
:1013F80013432269134362691343E26903431343A6
:10140800226A1343626A042A43EA050301BF266B72
:10141800E56A35432B430B604B69042A23F0070325
:1014280043EA02030BD1A26AE56A13433DB1F8B956
:10143800012A2DD001D3022A01D1EA012BD44B6114
:101448002046FFF7A1FFE26D3F2393408360002011
:101458000123606584F8353070BDFFF775FC401BCB
:101468000528B9D920236365032084F8350070BDA9
:10147800B0F5005F13D1032AE1D801A050F822F09B
:101488009F140008431400089F14000899140008CA
:10149800B5F1C07FD3D1402363650120E5E7022A77
:1014A800F9D9032AC8E7012070BD00BF3F8010F0BA
:1014B80070B590F83440012C36D0012480F83440BF
:1014C80090F83540866D012C4FF000054FF002046E
:1014D80028D180F8354004684565256825F48025BD
:1014E800256063608368402B0EBFA260A160E26044
:1014F800C26D08BFE1603F239340B360236843F0A7
:1015080016032360636943F080036361036C1BB1B6
:10151800236843F008032360236843F00103236032
:10152800002070BD80F83450022070BD90F835302E
:10153800022B03D0802343650120704702680523EE
:1015480080F83530136823F00103136000207047DA
:10155800F7B5002301935A4B856D1F68C36D2E683C
:1015680008229A40164204460CD0016808684007D1
:1015780008D5086820F004000860AA60626D42F08F
:101588000102626501229A40164208D02168496921
:10159800090641BFAA60626D42F002026265042238
:1015A8009A40164208D021680968880741BFAA6096
:1015B800626D42F00402626510229A40164210D011
:1015C8002368196809070CD5AA601A68500335D52D
:1015D8001B68190301D4236C00E0A36C0BB12046EF
:1015E8009847E16D20228A40164238D0236818684F
:1015F800C60634D5AA6094F83520052A1A6825D17C
:1016080022F016021A605A6922F080025A61226C8E
:101618000AB9A26C1AB11A6822F008021A603F23AC
:101628008B40AB60002384F83430012384F83530D4
:10163800236D0BB12046984703B0F0BD1A68D20558
:101648005EBF1A6822F008021A60C4E7500328D562
:101658001B68190332D4636C0BB120469847636D3D
:10166800002BE9D0636DDA0719D50523226884F8C1
:101678003530136823F0010313604FF41653B7FB9A
:10168800F3F7019B01339F42019302D31368DB07F1
:10169800F7D4002384F83430012384F83530E36C20
:1016A800C7E71A6812F4807208D1196821F010018E
:1016B8001960012384F8342084F83530E36BCBE7D4
:1016C8000800002090F83500704700002DE9F04F21
:1016D80085B00B68DFF89C81644A01934FF00109DB
:1016E8000023019C09FA03F707EA0406B74240F011
:1016F800AD804C6824F0100ABAF1020F16D14FEAF7
:10170800D30C00EB8C0C03F0070BDCF820504FEAED
:101718008B0B4FF00F0E0EFA0BFE25EA0E0E0D691D
:1017280005FA0BF545EA0E05CCF820504FEA430CB4
:101738000325D0F800B005FA0CF5ED4304F0030ECC
:101748000BEA050B0EFA0CFE0AF1FF3A4EEA0B0EF5
:10175800BAF1010F0095C0F800E015D8D0F808E0FC
:1017680005EA0E0ECD6805FA0CFA4AEA0E0EC0F824
:1017780008E0D0F804E02EEA0707C4F3001E0EFACA
:1017880003FE4EEA07074760C768009D3D408F6823
:1017980007FA0CF73D43C560E50057D54FF0000B3D
:1017A800CDF80CB0D8F84470314D47F48047C8F8EC
:1017B8004470D8F8447007F480470397039F23F0D8
:1017C800030707F1804707F59C3703F0030CD7F8A8
:1017D80008A04FEA8C0C4FF00F0E0EFA0CFEA84230
:1017E8002AEA0E0E39D005F58065A84237D005F5EE
:1017F8008065A84235D005F58065A84233D005F547
:101808008065A84214BF0725042505FA0CF545EAAA
:101818000E05BD601568F74314F4803F0CBF3D40CA
:1018280035431560556814F4003F0CBF3D403543FF
:101838005560956814F4801F0CBF3D403543956092
:10184800D568A40254BF3D403543D5600133102B01
:101858007FF447AF05B0BDE8F08F5D46D5E70125B9
:10186800D3E70225D1E70325CFE700BF003C0140BD
:1018780000000240003802400AB181617047090443
:10188800FBE701684B6913F480634FF0000210D046
:101898006FF480634B612023026380F83D3080F849
:1018A8003E20036C80F83C2043F0040303640120CD
:1018B8007047184670472DE9F8430446174699467D
:1018C800C1F307488EB22568B8F1010F0CBF6B69E8
:1018D800AB6936EA030314BF0120002008B9BDE84C
:1018E800F8836B695A0516D52B6843F400732B608F
:1018F8006FF480636B6120220023236384F83D200A
:1019080084F83E30226C42F00402226484F83C30B1
:101918000120BDE8F8837B1CD5D0FFF715FAA0EBB2
:101928000900874201D3002FCDD100232022236351
:1019380084F83D2084F83E30226C42F02002E4E72F
:1019480070B504460D46164623685B695B0701D5EA
:10195800002070BD2046FFF794FFA8B96A1CF3D099
:10196800FFF7F2F9801B854201D3002DECD100234B
:101978002022236384F83D2084F83E30226C84F8CA
:101988003C3042F020022264012070BD70B504464C
:101998000D4616462068436913F0400301D0002025
:1019A80070BD4269D2060ED56FF010024261202246
:1019B800236384F83D2084F83E30226C226484F846
:1019C8003C30012070BDFFF7BFF9801BA84201D849
:1019D800002DDFD100232022236384F83D2084F8E2
:1019E8003E30226C42F02002E8E72DE9F843089ED9
:1019F800044690461F46C1F307498DB22368B9F1E2
:101A0800010F0CBF5B699B6935EA03030CBF012317
:101A18000023434502D00020BDE8F8837B1CEDD0AD
:101A2800FFF792F9801B874201D3002FE6D10023EC
:101A38002022236384F83D2084F83E30226C84F809
:101A48003C3042F0200222640120BDE8F88370B5E2
:101A580004460D46164623685B691B0601D500201F
:101A680070BD2046FFF70DFFA8B96A1CF3D0FFF739
:101A78006BF9801B854201D3002DECD10023202275
:101A8800236384F83D2084F83E30226C84F83C308F
:101A980042F020022264012070BD000070B50446A7
:101AA80008B9012070BD90F83D3003F0FF021BB962
:101AB80080F83C2002F0E4FA2268242384F83D30C0
:101AC800136823F00103136001F0B6FA6568414B0F
:101AD8009D424DD8404B9842E3D922683F4953680C
:101AE800B0FBF1F123F03F030B435360136A23F07B
:101AF8003F03013119431162D169364B21F44F413B
:101B08009D4221F0FF0100F1FF3048D86D00B0FB85
:101B1800F5F00130C0F30B03042B38BF04230B434B
:101B2800D3611168206AE36921F0C00103430B43C4
:101B380013609168E068236921F40341034321F0AD
:101B4800FF010B439360D168A069636921F0FF012D
:101B580003430B43D360136843F001031360002071
:101B68002023206484F83D30206384F83E0070BD53
:101B78001B4B984295D92268184E5368B0FBF6F66D
:101B880023F03F0333435360136A4FF49671714354
:101B980023F03F034FF47A76B1FBF6F1A9E7A36887
:101BA80053B905EB4503B0FBF3F0431CC3F30B0338
:101BB8006BB143F40043B2E719236B43B0FBF3F076
:101BC800431CC3F30B0313B143F44043A7E70123BA
:101BD800A5E700BFA08601007F841E0040420F00D9
:101BE800FF083D002DE9FF4104461F460D4690467B
:101BF800FFF7AAF894F83D30202B064604D00225BA
:101C0800284604B0BDE8F081009019230122584904
:101C18002046FFF7EAFE0028F1D194F83C30012B6A
:101C2800EDD0012384F83C3023681A68D2075EBFE0
:101C38001A6842F001021A601A6822F400621A60F7
:101C4800212284F83D20102284F83E2000222264BC
:101C58006785628D2285474AE262E26AC4F8248079
:101C6800082A04D0012A02D012F5803F04D11A684C
:101C780042F480721A6002E0226B122AF7D00096B2
:101C88000A9B00224FF001112046FFF7AEFE08B173
:101C98000125B5E723692268B3F5804F13D105F014
:101CA800FE05156133460A9A33492046FFF703FEBD
:101CB80005460028ECD1236803905A6903929B6972
:101CC8000393039B44E0EB1103F0060343F0F00396
:101CD80013612A490A9A33462046FFF7ECFD00288B
:101CE800D6D12368EDB21D61DCE732460A99204659
:101CF800FFF7ADFE40B1236C042B01BF22681368C7
:101D080043F400731360C3E7636A20681A4612F845
:101D1800011B01616262628D013A92B26285228D75
:101D28004769511E89B27F0721850AD549B159787B
:101D3800016102336362638D013B9BB2023A6385A2
:101D4800228532460A992046FFF7FAFD0028D2D1AB
:101D5800238D002BC9D121680A6842F400720A60F9
:101D6800202284F83D2084F83C3084F83E3047E750
:101D7800020010000000FFFF02000100080001003F
:101D88002DE9F043044689B098460F469146109EC7
:101D9800FEF7DAFF94F83D30202B054604D00227E1
:101DA800384609B0BDE8F083009019230122A649FE
:101DB8002046FFF71AFE0028F1D194F83C30012B99
:101DC800EDD0012384F83C3023681A68D0075EBF41
:101DD8001A6842F001021A601A6822F400621A6056
:101DE800222284F83D20102284F83E20002222641A
:101DF800A4F82A80628D2285944AE262E26A196810
:101E0800C4F8249041F48061082A196004D0012A9A
:101E180002D012F5803F04D11A6842F480721A6029
:101E280002E0226B112AF7D00095334600224FF0CA
:101E380001112046FFF7D9FD08B10127B0E7236952
:101E4800B3F5804F236840D147F00107FFB21F6107
:101E58002B4632467E492046FFF72DFD07460028CF
:101E6800EBD1228D2368002A63D0012A74D11A6825
:101E780022F480621A6004975A6904929A6904925B
:101E8800049A1A6842F400721A60DFF8CC81238D34
:101E9800002B58D0032B00F2BA80012B77D12A46A9
:101EA80031462046FFF772FD0028C6D12268636AD2
:101EB80012691A70636A01336362238D013B2385BB
:101EC800638D013B9BB26385E1E74FEAE71808F0B1
:101ED800060848F0F0021A615E492B463246204651
:101EE800FFF7E9FC0028A8D123685949FFB21F6110
:101EF80032462B462046FFF7DEFC024600289CD1DE
:101F08002368079059690791996907910799196892
:101F180041F4807119602046009533464FF0011155
:101F2800FFF763FD002888D1226848F0F1031361A8
:101F38008EE703975A6903929A690392039A1A687B
:101F480042F400721A60202384F83D30002384F89C
:101F58003E3084F83C3023E7022A1A680DD122F477
:101F680080621A601A6842F400621A6005975A691A
:101F780005929B690593059B87E742F480621A6086
:101F880006975A6906929B690693069B7DE7022B82
:101F9800009533464FF00002414620461AD1FFF71C
:101FA80024FD00287FF449AF23681A6842F40072C0
:101FB8001A60626A1B691370626A531C6362238D1C
:101FC800013B2385638D013B9BB2638523681B69B5
:101FD80053706FE7FFF709FD024600287FF42DAF25
:101FE8002368196821F480611960616A1B690B70A4
:101FF800636A009501336362238D013B2385638DFA
:10200800013B9BB26385414633462046C7E72A46D3
:1020180031462046FFF7BAFC00287FF40EAF22684D
:10202800636A12691A70626A531C6362238D013BEA
:102038002385638D013B9BB26385236859694907F2
:102048007FF525AFC3E700BF020010000000FFFFC7
:1020580002000100080001000400010070477047F9
:1020680070477047704770477047704770477047B0
:10207800806B026890F83D1070B51468466B856BEC
:10208800002324F48064F363EB63146043851468CD
:10209800336524F001042B65146090F83D40602CF2
:1020A800C9B208D1202280F83D2080F83E30036470
:1020B800FFF7DDFF70BD01F0280128290DD1146854
:1020C80044F001041460146844F4806414600363E9
:1020D80080F83D10FFF7CAFF70BD202280F83D2030
:1020E80080F83E30F6E7000090F83D2090F83E304A
:1020F800102B10B5D2B20446036805D1222A02BFBC
:10210800196821F40061196002F0280128293AD1E0
:102118000022226384F83D105A6812F4006259D0F4
:102128005A68606B22F400625A6090F83530012BCF
:102138003C4B35D00365FFF7F9F950B12268606B65
:10214800136823F001031360202384F83D30036DE6
:10215800984794F83D30226C5207DBB212D5282BF1
:1021680010D12268536823F4E06353602E4BE36276
:10217800202200232363204684F83D2084F83E3043
:10218800FFF771FF10BD5968090504D4602A1CBF08
:10219800202284F83D200022226384F83E20BBE7F9
:1021A800A06B0365FFF7C2F90028D2D023685A69EB
:1021B800520605D5626A1B691370636A013363624C
:1021C8002268A06B136823F001031360202384F8AE
:1021D8003D30BCE794F83D10602915D1202184F8E2
:1021E8003D1022645A69500605D5626A1B6913704E
:1021F800636A013363622268136823F00103136082
:102208002046FFF734FFA4E75A69510605D5626AEC
:102218001B691370636A013363622046FFF726FF68
:1022280097E700BF792000080000FFFF036830B57A
:102238005A68C56A90F83E100446C9B290F83D0045
:1022480010298DB0C0B202D0402940F0B8829869F8
:10225800596911F0010F07D1B5F52A0F02D0B5F170
:102268002A4F4DD10DB030BD950549D5E26AB2F57A
:102278002A0F0CD10122E26294F83E20402A11D1A3
:10228800226D52B9626C02F0FE021A61EAE7E26A54
:10229800B2F12A4FF0D10822EDE7626C42F0010258
:1022A800D2B2F2E72269B2F5804F16D194F83D20F8
:1022B800212A626C16BF42F0010202F0FE02D2B27D
:1022C8001A61626BD26B1AB9A26BD26B002AC9D0A1
:1022D8005A6842F400625A60C4E7226D32B9626CEF
:1022E800D21102F0060242F0F002CEE7226D012A76
:1022F800B8D1626CD21102F0060242F0F102C4E7D2
:102308000D070BD5950509D5626CD2B21A61626BBF
:10231800002AD7D1A16B0029D4D1A3E78D0740F1BA
:10232800E180950540F1DE8094F83E10E26A256B65
:1023380094F83D002228C9B240F0CC80206D40B905
:10234800402906D101905A6901929B690193019B2A
:1023580088E7216D81B92069B0F5404F0CD1029111
:102368005A6902929A690292029A1A6842F4807231
:102378001A60236D013328E0618D89B251B9039148
:102388005A6903929A690392039A1A6842F400728E
:102398001A6019E0618D89B201294AD112F5803F8E
:1023A8001CD11A6822F480621A605A6812F400621A
:1023B8000DD01A6822F480621A60002204925A69C9
:1023C80004929B690493049B002323654AE70592C2
:1023D8005A6905929A690592059AD6E7082A1CD087
:1023E800202A1AD0122D0DD1012A16D11A6822F4EA
:1023F80080621A60002206925A6906929B690693C7
:10240800069BE1E7102AF1D88D4921FA02F2D0079C
:10241800ECD51A6842F48062EBE71A6822F480620D
:102428001A60002207925A6907929A690792079AD6
:10243800ABE7618D89B202292CD1102A03D88049D3
:10244800D140C90722D4196821F48061196019683C
:1024580041F40061196059680D050FD512F5803FE8
:1024680008D0511E1F299DBF764ACA40D243012277
:10247800D00703D45A6842F480525A600022089266
:102488005A6908929B690893089B9DE7196841F46B
:102498008061DFE7196841F48061196059680905AE
:1024A80010D512F5803F09D0013A1F2A9DBF654912
:1024B80021FA02F2D2430122D20703D45A6842F425
:1024C80080525A60002209925A6909929B690993BD
:1024D800099B79E700220A925A690A929B690A9332
:1024E8000A9BBFE610F0040F586800F0AD800505A0
:1024F8003FF5B8AE11F0800F01F0040169D0500526
:1025080067D5002965D194F83D20258D94F83E10B3
:10251800E06AD2B2C9B2C5B9212A18D1082878D040
:10252800202876D010F5803F73D05A6822F4E062F4
:102538005A6011232363002384F83E30202384F853
:102548003D302046FFF78AFD8CE6212A05D0402938
:102558007FF488AE222A7FF485AE628D92B21AB9D2
:102568005A6822F48062B6E694F83E20402A26D1C2
:10257800226D62B9E26C012AA26C04D1D2B21A614E
:10258800236D023321E7C2F307221A61F1E6226DB7
:10259800012A02D1A26CD2B2F7E7226D022A7FF497
:1025A80061AE94F83D20222A04D11A6842F4807260
:1025B8001A6057E694F83D20212A7FF453AE626AE8
:1025C80012F8011B19616262638D013B9BB263853E
:1025D80048E600293FF446AE92057FF543AEE16A2E
:1025E80094F83D20212A7FF43DAE628D92B2002AF4
:1025F800E5D108290DD020290BD011F5803F08D04E
:10260800596821F4E06159601123236384F83E205E
:1026180094E75A6822F4E0625A601A6842F4007239
:102628001A6000232022236384F83D2094F83E207A
:1026380084F83E30402A204684D1FFF715FD11E684
:10264800140001008180008005053FF50BAE11F0F4
:10265800400F01F0040148D0500546D5002944D167
:1026680094F83D20222A7FF4FDAD628D92B2032AB0
:1026780014D9626A1B691370636A01336362638DDC
:10268800013B9BB26385638D9BB2032B7FF4EAAD5C
:102698002268536823F480635360E3E5E06A022804
:1026A8003FF4E0AD012A3FF6DDAD1A6822F48062FE
:1026B8001A605A6822F4E0625A60626A1B691370F1
:1026C800636A01336362638D013B9BB26385202398
:1026D80084F83D3094F83E3084F83E10402B68D1A1
:1026E80021632046FFF7C1FCBCE500293FF4BAADE1
:1026F80092057FF5B7ADE26A618D89B20429616AF6
:1027080009D15A6822F480625A601B690B70636AA7
:102718000133636258E7608D80B203280CD1586892
:10272800042A20F480605860EFD0022AEDD01A689D
:1027380022F480621A60E8E7608D80B20228E4D152
:10274800012A01D0102A28D11A6822F480621A605E
:102758001B690B70626A531C6362638D013B9BB2F9
:10276800638523681B695370636A22680133636257
:10277800638D013B9BB26385536823F440735360B8
:10278800202384F83D3094F83E30402B4FF000036E
:1027980084F83E300DD12363A3E7042A01D0022A2E
:1027A80003D11A6842F48062D1E71A6842F40072D1
:1027B800CDE7122323632046FFF751FC52E5216C35
:1027C80021B35969002511F0020F29D012F4007FB6
:1027D80026D0226C02B19D6994F83D2002F02802AF
:1027E800282A16D15A6822F480625A6085F00401BA
:1027F8002B064FF00003C1F3800154BFA289228B3E
:1028080084F83C302046FFF72DFC2BE59D6959697B
:10281800D9E76FF002025A61002384F83C3021E5C1
:10282800CD0640F1AF80950540F1AC8094F83D505D
:102838005A6822F4E0625A6000220B925A690B929D
:102848001A6842F001021A600B9A1A6822F4806230
:102858001A605A681105EDB220D505F0F702222A50
:1028680048D1A06B0268526892B26285628D92B2BA
:102878001AB1226C42F0040222645A6822F40062FF
:102888005A60FEF71FFF012808D0A06B784B03653C
:10289800FEF74CFE10B1A06B036D9847638D9BB299
:1028A80013B323685A69520709D5626A1B69137002
:1028B800636A01336362638D013B9BB2638523685E
:1028C8005A69500609D5626A1B691370636A013335
:1028D8006362638D013B9BB26385638D9BB21BB1C1
:1028E800236C43F004032364236C03B32046FFF7EF
:1028F800FBFBB7E4606B0268526892B26285628D36
:1029080092B21AB1226C42F0040222645A6822F48C
:1029180000625A60FEF7D6FE0128BFD0606B544BA8
:102928000365FEF703FE0028B8D0606BB4E72A2DD4
:1029380006D12363282384F83D302046FFF791FB16
:1029480094F83D30282B0CD14A4BE3622022002317
:102958002363204684F83D2084F83E30FFF783FB4C
:1029680080E4236B222B02D0222D7FF47BAC002342
:102978002022236384F83D2084F83E302046FFF768
:1029880070FB6FE400F0F700212801F0040535D151
:10299800090627D5510525D525BB94F83D10628D2C
:1029A80092B2C9B2002A3FF45DAC626A12F8015BC8
:1029B8001D616262628D013A92B26285628D92B245
:1029C800002A7FF44FAC29297FF44CAC5A6822F4D2
:1029D80080625A602823206384F83D302046FFF740
:1029E8003FFB3FE4002D3FF43DAC95057FF53AAC45
:1029F800628D92B2002A7FF4E2AD33E4480627D50F
:102A0800510525D525BB94F83D20618D89B2D2B2F8
:102A180000293FF427AC616A1B690B70636A0133B4
:102A28006362638D013B9BB26385638D9BB2002B10
:102A38007FF418AC2A2A7FF415AC2268536823F473
:102A48008063536022232363282384F83D3095E76D
:102A5800002D3FF407AC92057FF504AC628D92B26D
:102A6800002A3FF4FFAB626A1B6913704FE600BF90
:102A7800792000080000FFFFF8B503685F695E6809
:102A880017F48075044606D016F480751EBF6FF4DF
:102A980080725A610125B90506D5F20542BF6FF467
:102AA800007245F002055A61780537D5F10535D52C
:102AB80094F83EE0618D94F83D20206BBEF1200F24
:102AC80089B2D2B25AD1002958D102F0F70121298E
:102AD80003D0282A52D1212850D194F83D20E16A08
:102AE8000829D2B201D020292AD1282A28D12C4A53
:102AF800E2625A6822F4E0625A606FF480625A61B6
:102B08001A6822F480621A60002320222363204678
:102B180084F83D2084F83E30FFF7A5FA3A053CD505
:102B2800F3053AD523686FF4006245F008055A6149
:102B3800236C1D4325642046BDE8F840FFF7D4BA4E
:102B4800212A17D11649E1622263202284F83D2008
:102B5800002284F83E205A6822F4E0625A606FF43A
:102B680080625A611A6822F480621A602046FFF770
:102B780077FAD3E76FF480625A61CFE76FF4806227
:102B88005A6194F83E20102A04BF1A6842F4007271
:102B980045F0040508BF1A60C0E7002DC8D1F8BD8C
:102BA8000000FFFF2DE9F341044618B9012002B0E7
:102BB800BDE8F0810368DD0710D42368980758D46E
:102BC80023681A0700F19A8023685B0700F1B88030
:102BD800A269002A40F019810020E8E7A64B9A680C
:102BE80002F00C02042A07D09A6802F00C02082AA4
:102BF8000AD15B68590207D59F4B1B689A03DCD53D
:102C08006368002BD9D1D1E763689B4DB3F5803F4A
:102C180011D12B6843F480332B60FEF795F8964D5D
:102C280006462B689B03C8D4FEF78EF8801B6428E1
:102C3800F7D90320BBE7B3F5A02F04D12B6843F4E1
:102C480080232B60E5E72A6822F480322A602A680C
:102C580022F480222A60002BDFD1FEF775F80646A1
:102C68002B689F03A9D5FEF76FF8801B6428F7D956
:102C7800DFE7814B9A6812F00C0F07D09A6802F0D0
:102C88000C02082A11D15B685E020ED47A4B1A68CE
:102C9800950702D5E268012A88D11A68216922F0CD
:102CA800F80242EAC1021A608AE7E268734BB2B1DD
:102CB80001221A60FEF748F86F4D06462B68980700
:102CC80007D52B68226923F0F80343EAC2032B6077
:102CD80076E7FEF739F8801B0228EFD9A9E71A60D2
:102CE800FEF732F8644D06462B6899077FF568AF02
:102CF800FEF72AF8801B0228F6D99AE76269604B2A
:102D08007AB101221A60FEF71FF85B4D06466B6F19
:102D18009F073FF559AFFEF717F8801B0228F6D931
:102D280087E71A60FEF710F8534D06466B6F980751
:102D38007FF54AAFFEF708F8801B0228F6D978E736
:102D48004D4B1A6C12F0805228D101921A6C42F045
:102D580080521A641B6C03F080530193019B012677
:102D6800484D2B68D9051BD5A368434D012B27D1A6
:102D78002B6F43F001032B67FDF7E6FF3E4D074637
:102D880041F288382B6F9B0739D5002E3FF420AFCE
:102D9800394A136C23F08053136419E70026DFE7E0
:102DA8002B6843F480732B60FDF7CEFF07462B6832
:102DB800DA05D9D4FDF7C8FFC01B0228F7D938E7D0
:102DC800052B04D12B6F43F004032B67D0E72A6F40
:102DD80022F001022A672A6F22F004022A67002BD8
:102DE800CAD1FDF7B1FF41F2883807462B6F980723
:102DF800CBD5FDF7A9FFC01B4045F7D919E7FDF76B
:102E0800A3FFC01B4045BDD913E71B4DAB6803F0BA
:102E18000C03082B3FF4CAAE1B4E0023022A336072
:102E280034D1FDF791FF07462B6899011ED4226A19
:102E3800E3691343626A43EA8213E26A43EA02637C
:102E4800A26A0D4C5208013A43EA02436B6001231F
:102E58003360FDF779FF054623689A013FF5BCAE5C
:102E6800FDF772FF401B0228F6D9E2E6FDF76CFF7A
:102E7800C01B0228D8D9DCE60038024000004742CF
:102E8800800E47420070004060004742FDF75CFF3B
:102E980004462B689B017FF59FAEFDF755FF001B8D
:102EA8000228F6D9C5E600BF134908B58B6803F0B8
:102EB8000C03042B03D0082B03D0104808BD10487E
:102EC80008BD4A684B68496813F4800314BF0C486E
:102ED8000A48C1F3881118BF002302F03F02A1FB82
:102EE8000001FDF75FFD044B5B68C3F30143013349
:102EF8005B00B0FBF3F008BD003802400024F4008A
:102F080000127A002DE9F0410D46044610B901205F
:102F1800BDE8F081444B1A6802F00F028A4228D3B8
:102F280021688F072DD4C80740D43F4B1A6802F098
:102F38000F02954266D3226851076CD4130707D550
:102F48003A4A2169936823F4604343EAC1039360D2
:102F5800FFF7AAFF354B364A9B68C3F30313D35CCC
:102F6800D840344B18600020FDF7A4FE0020BDE8CF
:102F7800F081CAB21A701B6803F00F039942C6D1D8
:102F8800CEE72A4B11F0040F1EBF9A6842F4E052B4
:102F98009A600E0742BF9A6842F460429A609A6843
:102FA800A06822F0F00202439A60BCE762681F4BF7
:102FB800012A1DD11B6813F4003FA8D01B4EB3682B
:102FC80023F003031343B360FDF7BEFE41F28838D4
:102FD8000746B368626803F00C03B3EB820FA4D012
:102FE800FDF7B2FEC01B4045F3D90320BDE8F081D0
:102FF800911E01291B6802D813F0007FDDE713F04A
:10300800020FDAE7EAB21A701B6803F00F039D4259
:103018007FF47DAF8FE70549E0688B6823F4E053C0
:1030280003438B608AE700BF003C0240003802403F
:103038004C44000808000020044B054A9B68C3F371
:103048008223D35C034A1068D84070470038024096
:103058005C44000808000020044B054A9B68C3F341
:103068004233D35C034A1068D840704700380240A6
:103078005C44000808000020036A23F0010303628F
:10308800036A70B5446882690D6822F073022A43A6
:103098008D6823F002032B430A4DA8420BD1CD685B
:1030A8008E6923F008032B434D6924F4407435439B
:1030B80023F004032C43446082614A68426303623C
:1030C80070BD00BF00000140036A23F480730362EF
:1030D800036A70B54468C2690D6822F073022A4316
:1030E8008D6823F4007343EA05230B4DA8420DD1E4
:1030F800CD688E6923F4006343EA05234D6924F4FF
:103108004054354323F4806344EA05144460C261A3
:103118004A68C263036270BD00000140036A23F479
:1031280080530362036A30B54468C2690D6822F4AB
:10313800E64242EA05228D6823F4005343EA053348
:10314800064DA84202BF4D6924F4804444EA851420
:103158004460C2614A680264036230BD00000140F5
:1031680070470000244A036890420ED0B0F1804FA7
:103178000BD0A2F57C42904207D002F580629042C3
:1031880003D002F58062904215D14A6823F070039B
:103198001343194A904219D0B0F1804F16D0A2F5C6
:1031A8007C42904212D002F5806290420ED002F525
:1031B800806290420AD0114A904207D002F580629C
:1031C800904203D002F58062904203D1CA6823F48A
:1031D800407313434A6923F08003134303608B68E9
:1031E800C3620B688362044B984204BF0B69036394
:1031F80001234361704700BF0000014000400140C7
:1032080010B50446A0B190F83D3003F0FF021BB999
:1032180080F83C2000F09AFF022384F83D302068B3
:10322800211DFFF79FFF012384F83D30002010BDCA
:10323800012010BD10B50446A0B190F83D3003F050
:10324800FF021BB980F83C20FFF78AFF022384F8AD
:103258003D302068211DFFF785FF012384F83D30AC
:10326800002010BD012010BD036A23F01003036283
:10327800036A70B5446882690D6822F4E64242EA3E
:1032880005228D6823F0200343EA05130B4DA8425D
:103298000DD1CD688E6923F0800343EA05134D698B
:1032A80024F44064354323F0400344EA8504446031
:1032B80082614A688263036270BD00BF00000140FA
:1032C80038B590F83C30012B04464FF0020025D069
:1032D800012384F83C3084F83D000C2A18D8DFE834
:1032E80002F0071717171E1717172F171717400081
:1032F8002068FFF7C1FE236809699A6942F008024D
:103308009A619A6922F004029A619A690A439A6159
:103318000123002084F83D3084F83C0038BD206843
:10332800FFF7A2FF236809699A6942F400629A616B
:103338009A6922F480629A619A6942EA0122E6E770
:103348002068FFF7C1FE23680969DA6942F00802BC
:10335800DA61DA6922F00402DA61DA690A43DA61C9
:10336800D6E72068FFF7DAFE23680969DA6942F4CC
:103378000062DA61DA6922F48062DA61DA6942EAC3
:103388000122ECE710B584680A4324F47F4442EA3A
:1033980003232343836010BD90F83C30012B70B5A4
:1033A80004464FF0020019D084F83D00206801233C
:1033B80084F83C30836823F47F4323F077038360E9
:1033C8000B68402B65D015D8102B0CD007D853B1FB
:1033D8000123002084F83D3084F83C0070BD202B88
:1033E80001D0302BF4D1826843F0070322F0700239
:1033F80013431AE0602B34D019D8502BE8D14A680F
:10340800CE68016A056A25F001050562836921F025
:103418000A0123F0F00343EA06130A4383610262B8
:10342800836823F0700343F057038360D0E7702B61
:103438000CD0B3F5005FCBD1CB684A688968FFF739
:10344800A1FF2268936843F4804308E0CB684A6888
:103458008968FFF797FF2268936843F077039360C2
:10346800B6E74D68CE68016A21F0100101628269F1
:10347800036A22F4704223F0A00343EA051342EAE8
:10348800063282610362836823F0700343F06703A6
:10349800CBE74A68CE68016A056A25F0010505622E
:1034A800836921F00A0123F0F00343EA06130A4373
:1034B80083610262836823F0700343F04703B4E733
:1034C800036A01F01F0110B501248C4023EA0403AC
:1034D8000362036A8A401A43026210BD10B50446AB
:1034E80001220068FFF7ECFF2368094A934202BFF4
:1034F8005A6C42F400425A649A6802F00702062A9B
:103508001EBF1A6842F001021A60002010BD00BFF9
:103518000000014010B5044600220068FFF7D0FF04
:103528002368124A93420DD1196A41F211121142CD
:1035380008D1196A40F24442114202BF5A6C22F47F
:1035480000425A64196A41F21112114208D1196AEB
:1035580040F24442114202BF1A6822F001021A6086
:10356800012384F83D30002010BD00BF0000014059
:1035780090F83C30012B30B54FF0020314D00468AA
:1035880080F83D306268A3680D68496822F07002CF
:1035980023F080030B432A436260A360012380F871
:1035A8003D30002380F83C30184630BD2DE9F04707
:1035B8000668C2683369C16923F440531343336111
:1035C800044683680069F2680343606922F416427E
:1035D800034322F00C020B431343F3607369A2699F
:1035E80023F440731343B1F5004F73617A4B7CD1D8
:1035F8009E4203D003F580639E4244D1FFF72CFD21
:10360800192505FB00F360684FF064094000B3FB1F
:10361800F0F3B3FBF9F34FEA0318FFF71DFD6368F6
:1036280068435B00B0FBF3F7FFF716FD6368684378
:103638005B00B0FBF3F3B3FBF9F309FB1373DB0097
:103648003233B3FBF9F35B0003F4F877FFF704FDBB
:10365800626868435200B0FBF2FAFFF7FDFC63684A
:1036680068435B00B0FBF3F3B3FBF9F309FB13A367
:10367800DB003233B3FBF9F303F0070343443B4465
:10368800B360BDE8F087FFF7D7FC192505FB00F309
:1036980060684FF064094000B3FBF0F3B3FBF9F343
:1036A8004FEA0318FFF7C8FC636868435B00B0FB88
:1036B800F3F7FFF7C1FC636868435B00B0FBF3F303
:1036C800B3FBF9F309FB1373DB003233B3FBF9F3F4
:1036D8005B0003F4F877FFF7AFFC626868435200B9
:1036E800B0FBF2FAFFF7A8FCB9E79E4202D03B4BC9
:1036F8009E4240D1FFF7B0FC676819254FF0640976
:1037080005FB00F3BF00B3FBF7F3B3FBF9F31F01AD
:10371800FFF7A2FC636868439B00B0FBF3F8FFF770
:103728009BFC636868439B00B0FBF3F3B3FBF9F3BE
:1037380009FB13831B013233B3FBF9F303F0F008E1
:10374800FFF78AFC626868439200B0FBF2FAFFF761
:1037580083FC636868439B00B0FBF3F3B3FBF9F3A6
:1037680009FB13A31B013233B3FBF9F303F00F0377
:1037780043EA080383E7FFF75FFC676819254FF002
:10378800640905FB00F3BF00B3FBF7F3B3FBF9F3E0
:103798001F01FFF751FC636868439B00B0FBF3F817
:1037A800FFF74AFC636868439B00B0FBF3F3B3FB85
:1037B800F9F309FB13831B013233B3FBF9F303F06D
:1037C800F008FFF739FC626868439200B0FBF2FA30
:1037D800FFF732FCBDE700BF0010014000140140B4
:1037E80010B5044640B390F8393003F0FF021BB916
:1037F80080F8382000F040FD2268242384F839300E
:10380800D36823F40053D3602046FFF7CFFE236824
:103818001A6922F490421A615A6922F02A025A61FE
:10382800DA6842F40052DA6000202023E06384F86A
:10383800393084F83A3010BD012010BD03C8FFF7B5
:103848004DBE03C8FFF766BE38B50D460446FFF700
:10385800F5FF2846FDF77EFA2046BDE83840FFF719
:10386800F0BF000030B595B03022002108A800F064
:10387800D1FD0021142203A800F0CCFD00251C4B2B
:1038880001951A6C42F080521A641B6C194A03F0B5
:1038980080530193019B0295136823F4404343F43A
:1038A80000431360136803F440430293029B01230F
:1038B80008934FF4A02309934FF480030224542261
:1038C8000F9308A804231093119213930E94129443
:1038D800FFF768F90F23039321464FF4805303A899
:1038E8000494059506930795FFF70CFB15B030BDBA
:1038F80000380240007000402DE9804895B000244F
:10390800BB4DFDF7FBF9FFF7ADFF142200210DA811
:1039180000F080FD03942B6BB64843F004032B633F
:103928002B6B03F004030393039B04942B6B43F06A
:1039380080032B632B6B03F080030493049B059493
:103948002B6B43F001032B632B6B03F001030593EF
:10395800059B06942B6B43F002032B632B6B03F040
:103968000203224606934FF47051069BFDF784FF2D
:10397800224641F62301A048FDF77EFF01274FF4B8
:1039880070530DA99B480D930E970F941094FDF753
:103998009DFE41F623030DA997480D930E970F94AA
:1039A8001094FDF793FE40230DA993480D930E94B0
:1039B8000F94FDF78BFE02942B6B43F480032B636B
:1039C8002B6B8E4D03F48003224621460293382048
:1039D800029BFDF781FC3820FDF7B2FC102221463E
:1039E8000DA800F017FD864BAC604FF4803685E8D3
:1039F8004800844BAB6228460923EB614FF0070867
:103A08002F612F7685F82040EC62EC6085F83070E5
:103A18006F61FDF7B3F90DA928464FF0080ACDF8F4
:103A280034800E97CDF83C80FDF7ACFB02230DA93E
:103A380028460E93CDF834A0FDF7A4FB09230D9377
:103A48000DA9032328464FF004090E93FDF79AFBAE
:103A58000A230DA928460D93CDF83890FDF792FB5F
:103A68000B230D930DA9052328464FF00C0B0E933D
:103A7800FDF788FB06230DA928460E93CDF834B030
:103A8800FDF780FB0D230DA928460D93CDF838804E
:103A9800FDF778FB0E230DA928460D93CDF838A025
:103AA800FDF770FB0F230D930DA9092328460E93EC
:103AB800FDF768FB544B5549554ADFF864819C6013
:103AC80083E8060018464FF48042DC601A615C61A6
:103AD8009C61DC611C620193FDF7E0FF2146102226
:103AE80009A800F097FC21461C220DA80794089409
:103AF80000F090FC4FF08042404688E81400C8F877
:103B08000840C8F80C60C8F81040C8F81840FFF71B
:103B180077FB4FF4805309A940460993FFF73CFC13
:103B28004046FFF787FB07A9404607940894FFF72C
:103B38001FFD4FF4004260230DA90E9240465246E5
:103B48000D930F94CDF84490FFF7BAFB404600F070
:103B580037FB2146102209A82E4E2F4F00F05AFCA1
:103B680021461C220DA80794089400F053FC2B4A08
:103B7800B460FF23304686E80408F3603461B4611A
:103B8800FFF73EFB4FF4805309A930460993FFF72E
:103B980003FC3046FFF74EFB07A93046079408940C
:103BA800FFF7E6FC802260230E920DA922463046DC
:103BB8000D930F94CDF84490FFF782FB4A460DA968
:103BC80030460E94FFF77CFB52460DA93046FFF7AE
:103BD80077FB5A460DA93046FFF772FB304600F0D6
:103BE800EFFA2146102209A800F014FC1AE000BFE1
:103BF8000038024000080240000002403001002066
:103C0800002001400100000F48000020005C004037
:103C1800A0860100F0000020B00000200004004051
:103C28003402002021461C220DA80794089400F0B5
:103C3800F1FB494ABC60FF23384687E80408FB606B
:103C48003C61BC61FFF7DCFA4FF4805309A93846A0
:103C58000993FFF7A1FB3846FFF7ECFA07A93846A6
:103C680007940894FFF784FC602322460DA9384680
:103C78000D930E940F94CDF84490FFF721FB4A461C
:103C88000DA93846FFF71CFB52460DA93846FFF729
:103C980017FB0DA95A463846FFF712FB384600F0C5
:103CA8008FFA2E482E4A84604FF4E13780E884006A
:103CB800C46004618461C461C0F814B0FFF790FD6A
:103CC800092228492846FDF7FFF8274D2748019B78
:103CD800066046608460AB61C0F80C9000F05EF846
:103CE800234B284683E8000519A7D7E9006700F0A9
:103CF8001AF92C46284600F0EDF8237D1BB9DFF8A9
:103D08007080237DABB16068FCF7C6FB32463B464A
:103D1800FCF716FC32463B46FCF760FAFCF722FE3D
:103D2800012281B2114800F051F86420FDF712F821
:103D3800E0E7284600F0CEF840466421FFF784FD0E
:103D48004FF47A70FDF706F8DBE700BFAFF30080A9
:103D58000000000000C05F4000080040740200201E
:103D6800004400409C00002018020020FC010020B4
:103D78007801002070470C290FD8DFE801F0070E02
:103D88000E0E090E0E0E0B0E0E0E0D00426370473E
:103D980082637047C2637047026470474368C168B2
:103DA80010B5044600221868FFF7E5FF2368A168EC
:103DB80018680022FFF7DFFFE1686068FFF78EFBF5
:103DC800A1682068BDE81040FFF788BB436870B55C
:103DD800044616460D460022C1681868FFF7CBFF57
:103DE8002368A16818680022FFF7C5FF3EB9636819
:103DF800E168EAB21868BDE87040FFF7BCBF012E61
:103E080003D12368A168EAB2F4E770BD70B586B043
:103E1800F02364268DF80C300096552304468DF85F
:103E28000D3003AA0223A4218069FDF7DBFEFB23E2
:103E380000258DF80C300096022303AAA421A0695E
:103E48008DF80D50FDF7CEFE8DF80C508DF80D5005
:103E58000C250096012303AAA421A069FDF7C2FE40
:103E680088BBC823009304AA0623A521A069FDF7EF
:103E780087FF9DF810309DF81210803B23729DF843
:103E88001130803B63729DF8153083F00202C2F353
:103E98004002A274DA4302F00102E274C3F3810221
:103EA80042EA81029DF81310A281C3F3011242EA8B
:103EB8008102E2819DF814209B0943EA8203238250
:103EC8000123237504E0013D15F0FF05C1D12575D7
:103ED80006B070BD10B50446FFF798FF94F90A3094
:103EE80094F908201A4407EE902A7F33B8EEE77A4F
:103EF80007EE903AF8EEE77A94F90B3094F9092036
:103F0800C7EE276A1A447F3307EE902AB8EEE77A9D
:103F180007EE903AF8EEE77AC4ED006AC7EE276A32
:103F2800C4ED016A10BD10B50446FFF76FFF237A90
:103F38005B42A372637A5B42E3720123637510BD2F
:103F480082B00C4B002100915A6C42F480425A64B2
:103F58005A6C02F480420092009A01911A6C42F065
:103F680080521A641B6C03F080530193019B02B0CA
:103F7800704700BF0038024070B514228AB0064668
:103F880000210DEB020000F045FA3268364B9A42E8
:103F980067D103F58C33002501955A6C334842F4F8
:103FA80080725A645A6C02F480720192019A0295E6
:103FB8001A6B42F004021A631A6B02F004020292AE
:103FC800029A03951A6B42F001021A631A6B02F007
:103FD80001020392039A04951A6B42F002021A63D3
:103FE8001B6B03F0020304930324049B06943F23F2
:103FF80005A90593FDF76AFB802305A91C480593CD
:1040080006940795FDF762FB1A48059405A90694DE
:104018000795194CFDF75AFB184BA56084E8280052
:104028004FF4806323614FF4006363614FF40053DE
:10403800A3614FF48073E36120464FF40033E560D9
:1040480023626562FDF7B6F908B1FFF793FE002217
:10405800B46312201146A663FDF73EF91220FDF75E
:104068006FF90AB070BD00BF00200140000802408F
:1040780000000240000402409C010020106402403D
:104088002DE9F041044688B01422002103A800F06D
:10409800C1F92268294B9A424CD1294C294800255C
:1040A8000095236B43F001032363236B03F00103A3
:1040B8000093009B0195236B43F002032363236B5A
:1040C80003F002030193019B4FF4807303934FF0B5
:1040D800120804230127032603A90793CDF81080AB
:1040E80005970696FDF7F2FA1023039303A909230F
:1040F80015480793CDF8108005970696FDF7E6FA60
:104108000295236C43F400032364236C03F4000337
:104118002A46294602934820029BFDF7DDF84820ED
:10412800FDF70EF949202A462946FDF7D5F849201A
:10413800FDF706F908B0BDE8F08100BF005C00405B
:104148000038024000000240000402400368B3F156
:10415800804F84B00DD100230193164B1A6C42F0A6
:1041680001021A641B6C03F001030193019B04B064
:104178007047114A93420CD1002302930D4B1A6CDD
:1041880042F002021A641B6C03F002030293029BC2
:10419800EDE70A4A9342EAD100230393054B1A6CD0
:1041A80042F004021A641B6C03F004030393039B9C
:1041B800DDE700BF0038024000040040000800406E
:1041C80010B5044688B01422002103A800F022F993
:1041D8002368B3F1804F15D100230093214B1A6B4C
:1041E80042F002021A631B6B03F002030093009B68
:1041F8004FF480630393022304930123079303A9D5
:10420800194816E0194A934217D100230193154B18
:1042180017481A6B42F004021A631B6B03F004037D
:104228000193019B4FF47073039302230493079344
:1042380003A9FDF74BFA08B010BD0E4A9342FAD114
:1042480000230293074B1A6B42F002021A631B6B9E
:1042580003F002030293029B4FF47073039302234B
:104268000493CBE7003802400004024000040040F9
:10427800000802400008004010B5044688B0142227
:10428800002103A800F0C6F82268154B9A4224D1F1
:1042980003F5FA33002101911A6C124842F40032F6
:1042A8001A641A6C02F400320192019A02911A6B94
:1042B80042F001021A631B6B03F001030293029B95
:1042C8000C230393022304930123059303230693EA
:1042D80003A907230793FDF7F9F908B010BD00BF3C
:1042E80000440040000002407047FEE7FEE7FEE79A
:1042F800FEE7704770477047FCF71ABD0148FCF7A6
:104308006CBE00BF300100200148FDF721B900BF95
:104318009C0100200148FDF789BF00BF480000202C
:104328000148FEF7A9BB00BF480000200F49D1F89B
:10433800883043F47003C1F888300D4B1A680020A8
:1043480042F001021A6098601A6822F0847222F41E
:1043580080321A60074A5A601A6822F480221A606A
:10436800D8604FF000638B60704700BF00ED00E03D
:104378000038024010300024DFF834D0002103E078
:104388000C4B5B58435004310B480C4B42189A4273
:10439800F6D30B4A02E0002342F8043B094B9A4249
:1043A800F9D3FFF7C3FF00F011F8FFF7A5FA70473C
:1043B8000080012074440008000000200C00002048
:1043C8000C00002004030020FEE7000070B50D4E2D
:1043D8000D4CA41BA4100025A54209D10B4E0C4C72
:1043E80000F020F8A41BA4100025A54205D170BD3B
:1043F80056F8253098470135EEE756F825309847A6
:104408000135F2E76C4400086C4400086C4400086D
:104418007044000802440346934200D1704703F8F1
:10442800011BF9E7F8B500BFF8BC08BC9E46704709
:0C443800F8B500BFF8BC08BC9E467047F9
:104444000006101600061016000000000000000010
:104454000102030406070809000000000102030426
:0844640078C5FF7F0100000094
:04446C00BD01000886
:0444700099010008A6
:0C44740001000000100000000024F40013
:04000005080043812B
:00000001FF
